{
  "contractName": "CMCOracle",
  "abi": [
    {
      "inputs": [],
      "stateMutability": "nonpayable",
      "type": "constructor"
    },
    {
      "anonymous": false,
      "inputs": [
        {
          "indexed": false,
          "internalType": "uint256",
          "name": "id",
          "type": "uint256"
        }
      ],
      "name": "CallbackGetEthCap",
      "type": "event"
    },
    {
      "inputs": [],
      "name": "ethPrice",
      "outputs": [
        {
          "internalType": "uint256",
          "name": "",
          "type": "uint256"
        }
      ],
      "stateMutability": "view",
      "type": "function",
      "constant": true
    },
    {
      "inputs": [],
      "name": "owner",
      "outputs": [
        {
          "internalType": "address",
          "name": "",
          "type": "address"
        }
      ],
      "stateMutability": "view",
      "type": "function",
      "constant": true
    },
    {
      "inputs": [],
      "name": "initCMCDataUpdate",
      "outputs": [],
      "stateMutability": "nonpayable",
      "type": "function"
    },
    {
      "inputs": [
        {
          "internalType": "uint256",
          "name": "_ethPrice",
          "type": "uint256"
        }
      ],
      "name": "feedCMCData",
      "outputs": [],
      "stateMutability": "nonpayable",
      "type": "function"
    }
  ],
  "bytecode": "0x608060405234801561001057600080fd5b50336000806101000a81548173ffffffffffffffffffffffffffffffffffffffff021916908373ffffffffffffffffffffffffffffffffffffffff1602179055506103d6806100606000396000f3fe608060405234801561001057600080fd5b506004361061004c5760003560e01c806333b01b101461005157806335a7b08d1461006d5780638da5cb5b14610077578063ff186b2e14610095575b600080fd5b61006b600480360381019061006691906101ea565b6100b3565b005b61007561014b565b005b61007f610185565b60405161008c9190610258565b60405180910390f35b61009d6101a9565b6040516100aa9190610282565b60405180910390f35b60008054906101000a900473ffffffffffffffffffffffffffffffffffffffff1673ffffffffffffffffffffffffffffffffffffffff163373ffffffffffffffffffffffffffffffffffffffff1614610141576040517f08c379a000000000000000000000000000000000000000000000000000000000815260040161013890610320565b60405180910390fd5b8060018190555050565b7ff0da7ace4a9beffbe5537b3f5291a21ae09e4b9c13e844d6601ae2b422f2bfd9600160405161017b9190610385565b60405180910390a1565b60008054906101000a900473ffffffffffffffffffffffffffffffffffffffff1681565b60015481565b600080fd5b6000819050919050565b6101c7816101b4565b81146101d257600080fd5b50565b6000813590506101e4816101be565b92915050565b600060208284031215610200576101ff6101af565b5b600061020e848285016101d5565b91505092915050565b600073ffffffffffffffffffffffffffffffffffffffff82169050919050565b600061024282610217565b9050919050565b61025281610237565b82525050565b600060208201905061026d6000830184610249565b92915050565b61027c816101b4565b82525050565b60006020820190506102976000830184610273565b92915050565b600082825260208201905092915050565b7f4f6e6c79206f776e65722063616e206578656375746520746869732066756e6360008201527f74696f6e00000000000000000000000000000000000000000000000000000000602082015250565b600061030a60248361029d565b9150610315826102ae565b604082019050919050565b60006020820190508181036000830152610339816102fd565b9050919050565b6000819050919050565b6000819050919050565b600061036f61036a61036584610340565b61034a565b6101b4565b9050919050565b61037f81610354565b82525050565b600060208201905061039a6000830184610376565b9291505056fea264697066735822122091cba861220bc8522f7f5546ce021dfe4cbe02be614b8b47562a2e4c4c46f47164736f6c634300080a0033",
  "immutableReferences": {},
  "source": "//SPDX-License-Identifier: Unlicense\npragma solidity >=0.6.0 <0.9.0;\n\ncontract CMCOracle {\n    address public owner;\n\n    uint public ethPrice;\n\n    event CallbackGetEthCap(uint id);\n\n    constructor() {\n        owner = msg.sender;\n    }\n\n    function initCMCDataUpdate() public {\n        emit CallbackGetEthCap(1);\n    }\n\n    function feedCMCData(uint _ethPrice) public onlyOwner {\n      ethPrice = _ethPrice;\n    }\n\n    modifier onlyOwner() {\n      require(msg.sender == owner, \"Only owner can execute this function\");\n      _;\n    }\n}\n",
  "sourcePath": "C:\\Rula01\\01_Lernen\\MyProjects\\oracles\\contracts\\CMCOracle.sol",
  "compiler": {
    "name": "solc",
    "version": "0.8.10+commit.fc410830.Emscripten.clang"
  },
  "schemaVersion": "3.4.3",
  "updatedAt": "2022-02-15T08:56:09.438Z",
  "networkType": "ethereum",
  "devdoc": {
    "kind": "dev",
    "methods": {},
    "version": 1
  },
  "userdoc": {
    "kind": "user",
    "methods": {},
    "version": 1
  }
}