{
  "contractName": "RequestOracle",
  "abi": [
    {
      "inputs": [],
      "name": "cmcO",
      "outputs": [
        {
          "internalType": "contract CMCOracle",
          "name": "",
          "type": "address"
        }
      ],
      "stateMutability": "view",
      "type": "function",
      "constant": true
    },
    {
      "inputs": [],
      "name": "ethPrice",
      "outputs": [
        {
          "internalType": "uint256",
          "name": "",
          "type": "uint256"
        }
      ],
      "stateMutability": "view",
      "type": "function",
      "constant": true
    },
    {
      "inputs": [
        {
          "internalType": "address",
          "name": "_addrCMCOracle",
          "type": "address"
        }
      ],
      "name": "initOracle",
      "outputs": [],
      "stateMutability": "nonpayable",
      "type": "function"
    },
    {
      "inputs": [],
      "name": "requestCMCOracleUpdate",
      "outputs": [],
      "stateMutability": "nonpayable",
      "type": "function"
    },
    {
      "inputs": [],
      "name": "requestCMCOracleData",
      "outputs": [],
      "stateMutability": "nonpayable",
      "type": "function"
    }
  ],
  "bytecode": "0x608060405234801561001057600080fd5b5061041b806100206000396000f3fe608060405234801561001057600080fd5b50600436106100575760003560e01c80638236fbf41461005c5780639b31cf2e14610078578063bd5c583314610096578063d3c37b9d146100a0578063ff186b2e146100aa575b600080fd5b610076600480360381019061007191906102b1565b6100c8565b005b61008061010b565b60405161008d919061033d565b60405180910390f35b61009e61012f565b005b6100a86101b1565b005b6100b2610248565b6040516100bf9190610371565b60405180910390f35b806000806101000a81548173ffffffffffffffffffffffffffffffffffffffff021916908373ffffffffffffffffffffffffffffffffffffffff16021790555050565b60008054906101000a900473ffffffffffffffffffffffffffffffffffffffff1681565b60008054906101000a900473ffffffffffffffffffffffffffffffffffffffff1673ffffffffffffffffffffffffffffffffffffffff166335a7b08d6040518163ffffffff1660e01b8152600401600060405180830381600087803b15801561019757600080fd5b505af11580156101ab573d6000803e3d6000fd5b50505050565b60008054906101000a900473ffffffffffffffffffffffffffffffffffffffff1673ffffffffffffffffffffffffffffffffffffffff1663ff186b2e6040518163ffffffff1660e01b8152600401602060405180830381865afa15801561021c573d6000803e3d6000fd5b505050506040513d601f19601f8201168201806040525081019061024091906103b8565b600181905550565b60015481565b600080fd5b600073ffffffffffffffffffffffffffffffffffffffff82169050919050565b600061027e82610253565b9050919050565b61028e81610273565b811461029957600080fd5b50565b6000813590506102ab81610285565b92915050565b6000602082840312156102c7576102c661024e565b5b60006102d58482850161029c565b91505092915050565b6000819050919050565b60006103036102fe6102f984610253565b6102de565b610253565b9050919050565b6000610315826102e8565b9050919050565b60006103278261030a565b9050919050565b6103378161031c565b82525050565b6000602082019050610352600083018461032e565b92915050565b6000819050919050565b61036b81610358565b82525050565b60006020820190506103866000830184610362565b92915050565b61039581610358565b81146103a057600080fd5b50565b6000815190506103b28161038c565b92915050565b6000602082840312156103ce576103cd61024e565b5b60006103dc848285016103a3565b9150509291505056fea2646970667358221220f254a994586bd80bf961981e28098905b17c944079290663f7b64da2d981ed1c64736f6c634300080a0033",
  "immutableReferences": {},
  "source": "// SPDX-License-Identifier: MIT\npragma solidity >=0.4.22 <0.9.0;\n\nimport \"./CMCOracle.sol\";\n\ncontract RequestOracle {\n  CMCOracle public cmcO;\n  uint public ethPrice;\n\n  function initOracle(address _addrCMCOracle) external {\n    cmcO = CMCOracle(_addrCMCOracle);\n  }\n\n  function requestCMCOracleUpdate() external {\n    cmcO.initCMCDataUpdate();\n  }\n\n  function requestCMCOracleData() external {\n    ethPrice = cmcO.ethPrice();\n  }\n}\n",
  "sourcePath": "C:\\Rula01\\01_Lernen\\MyProjects\\oracles\\contracts\\RequestOracle.sol",
  "compiler": {
    "name": "solc",
    "version": "0.8.10+commit.fc410830.Emscripten.clang"
  },
  "schemaVersion": "3.4.3",
  "updatedAt": "2022-02-15T08:56:02.464Z",
  "networkType": "ethereum",
  "devdoc": {
    "kind": "dev",
    "methods": {},
    "version": 1
  },
  "userdoc": {
    "kind": "user",
    "methods": {},
    "version": 1
  }
}